{
  "contractName": "CarContract",
  "abi": [
    {
      "constant": true,
      "inputs": [
        {
          "name": "",
          "type": "address"
        }
      ],
      "name": "balances",
      "outputs": [
        {
          "name": "",
          "type": "uint256"
        }
      ],
      "payable": false,
      "stateMutability": "view",
      "type": "function"
    },
    {
      "constant": true,
      "inputs": [
        {
          "name": "",
          "type": "uint256"
        }
      ],
      "name": "votecar",
      "outputs": [
        {
          "name": "id",
          "type": "uint256"
        },
        {
          "name": "model",
          "type": "string"
        },
        {
          "name": "modelYear",
          "type": "uint256"
        },
        {
          "name": "canBeTested",
          "type": "bool"
        },
        {
          "name": "hasBeenVoted",
          "type": "bool"
        },
        {
          "name": "carPaint",
          "type": "uint256"
        },
        {
          "name": "carCoupe",
          "type": "uint256"
        },
        {
          "name": "carEngine",
          "type": "uint256"
        }
      ],
      "payable": false,
      "stateMutability": "view",
      "type": "function"
    },
    {
      "constant": true,
      "inputs": [],
      "name": "carsCount",
      "outputs": [
        {
          "name": "",
          "type": "uint256"
        }
      ],
      "payable": false,
      "stateMutability": "view",
      "type": "function"
    },
    {
      "constant": true,
      "inputs": [
        {
          "name": "",
          "type": "uint256"
        }
      ],
      "name": "cars",
      "outputs": [
        {
          "name": "id",
          "type": "uint256"
        },
        {
          "name": "model",
          "type": "string"
        },
        {
          "name": "modelYear",
          "type": "uint256"
        },
        {
          "name": "carCost",
          "type": "uint256"
        },
        {
          "name": "canBeTested",
          "type": "bool"
        },
        {
          "name": "voteCarService",
          "type": "bool"
        }
      ],
      "payable": false,
      "stateMutability": "view",
      "type": "function"
    },
    {
      "inputs": [],
      "payable": true,
      "stateMutability": "payable",
      "type": "constructor"
    },
    {
      "constant": false,
      "inputs": [
        {
          "name": "owner",
          "type": "address"
        },
        {
          "name": "amount",
          "type": "uint256"
        }
      ],
      "name": "mint",
      "outputs": [],
      "payable": false,
      "stateMutability": "nonpayable",
      "type": "function"
    },
    {
      "constant": false,
      "inputs": [
        {
          "name": "receiver",
          "type": "address"
        },
        {
          "name": "amount",
          "type": "uint256"
        }
      ],
      "name": "send",
      "outputs": [],
      "payable": false,
      "stateMutability": "nonpayable",
      "type": "function"
    },
    {
      "constant": true,
      "inputs": [
        {
          "name": "addr",
          "type": "address"
        }
      ],
      "name": "queryBalance",
      "outputs": [
        {
          "name": "balance",
          "type": "uint256"
        }
      ],
      "payable": false,
      "stateMutability": "view",
      "type": "function"
    },
    {
      "constant": false,
      "inputs": [
        {
          "name": "carModel",
          "type": "string"
        },
        {
          "name": "carYear",
          "type": "uint256"
        },
        {
          "name": "_carCost",
          "type": "uint256"
        },
        {
          "name": "testOption",
          "type": "bool"
        },
        {
          "name": "voteOption",
          "type": "bool"
        }
      ],
      "name": "addNewCar",
      "outputs": [],
      "payable": true,
      "stateMutability": "payable",
      "type": "function"
    },
    {
      "constant": false,
      "inputs": [
        {
          "name": "_id",
          "type": "uint256"
        },
        {
          "name": "model",
          "type": "string"
        },
        {
          "name": "modelYear",
          "type": "uint256"
        },
        {
          "name": "canBeTested",
          "type": "bool"
        },
        {
          "name": "_hasBeenVoted",
          "type": "bool"
        }
      ],
      "name": "depositCar",
      "outputs": [],
      "payable": false,
      "stateMutability": "nonpayable",
      "type": "function"
    },
    {
      "constant": false,
      "inputs": [
        {
          "name": "_id",
          "type": "uint256"
        },
        {
          "name": "_carCost",
          "type": "uint256"
        }
      ],
      "name": "buyCar",
      "outputs": [],
      "payable": false,
      "stateMutability": "nonpayable",
      "type": "function"
    },
    {
      "constant": false,
      "inputs": [
        {
          "name": "_id",
          "type": "uint256"
        },
        {
          "name": "_voteCarService",
          "type": "bool"
        }
      ],
      "name": "addVoting",
      "outputs": [
        {
          "name": "",
          "type": "bool"
        }
      ],
      "payable": false,
      "stateMutability": "nonpayable",
      "type": "function"
    },
    {
      "constant": false,
      "inputs": [
        {
          "name": "_id",
          "type": "uint256"
        },
        {
          "name": "_tesetService",
          "type": "bool"
        }
      ],
      "name": "addTestOption",
      "outputs": [
        {
          "name": "",
          "type": "bool"
        }
      ],
      "payable": false,
      "stateMutability": "nonpayable",
      "type": "function"
    },
    {
      "constant": false,
      "inputs": [
        {
          "name": "_id",
          "type": "uint256"
        }
      ],
      "name": "getCarPrice",
      "outputs": [
        {
          "name": "",
          "type": "uint256"
        }
      ],
      "payable": false,
      "stateMutability": "nonpayable",
      "type": "function"
    },
    {
      "constant": false,
      "inputs": [
        {
          "name": "_id",
          "type": "uint256"
        },
        {
          "name": "_carPaintVote",
          "type": "uint256"
        }
      ],
      "name": "carPaintVote",
      "outputs": [],
      "payable": false,
      "stateMutability": "nonpayable",
      "type": "function"
    },
    {
      "constant": false,
      "inputs": [
        {
          "name": "_id",
          "type": "uint256"
        },
        {
          "name": "_carCoupeVote",
          "type": "uint256"
        }
      ],
      "name": "carCoupeVote",
      "outputs": [],
      "payable": false,
      "stateMutability": "nonpayable",
      "type": "function"
    },
    {
      "constant": false,
      "inputs": [
        {
          "name": "_id",
          "type": "uint256"
        },
        {
          "name": "_carEngineVote",
          "type": "uint256"
        }
      ],
      "name": "carEngineVote",
      "outputs": [],
      "payable": false,
      "stateMutability": "nonpayable",
      "type": "function"
    },
    {
      "constant": false,
      "inputs": [
        {
          "name": "_id",
          "type": "uint256"
        }
      ],
      "name": "getCarPaintVote",
      "outputs": [
        {
          "name": "",
          "type": "uint256"
        }
      ],
      "payable": false,
      "stateMutability": "nonpayable",
      "type": "function"
    },
    {
      "constant": false,
      "inputs": [
        {
          "name": "_id",
          "type": "uint256"
        }
      ],
      "name": "getCarCoupeVote",
      "outputs": [
        {
          "name": "",
          "type": "uint256"
        }
      ],
      "payable": false,
      "stateMutability": "nonpayable",
      "type": "function"
    },
    {
      "constant": false,
      "inputs": [
        {
          "name": "_id",
          "type": "uint256"
        }
      ],
      "name": "getCarEngineVote",
      "outputs": [
        {
          "name": "",
          "type": "uint256"
        }
      ],
      "payable": false,
      "stateMutability": "nonpayable",
      "type": "function"
    }
  ],
  "bytecode": "0x6080604052336000806101000a81548173ffffffffffffffffffffffffffffffffffffffff021916908373ffffffffffffffffffffffffffffffffffffffff160217905550611099806100536000396000f300608060405260043610610107576000357c0100000000000000000000000000000000000000000000000000000000900463ffffffff168063018cc90d1461010c578063102db73b146101435780631b7101c9146101845780631f1c1661146101c557806327e235e31461025a5780632d1af255146102b157806336f4245d1461039057806337f42841146103e15780633ea9d2cb1461043857806340c10f191461046f57806371e69a32146104bc578063accd67e9146104fd578063b1a6aa7a1461053e578063c03363df14610575578063c3d97a27146105ac578063d0679d34146105d7578063d5f354f314610624578063f2831b8914610675578063f7746e36146106fd575b600080fd5b34801561011857600080fd5b5061014160048036038101908080359060200190929190803590602001909291905050506107ce565b005b34801561014f57600080fd5b5061016e60048036038101908080359060200190929190505050610847565b6040518082815260200191505060405180910390f35b34801561019057600080fd5b506101af60048036038101908080359060200190929190505050610867565b6040518082815260200191505060405180910390f35b3480156101d157600080fd5b5061025860048036038101908080359060200190929190803590602001908201803590602001908080601f016020809104026020016040519081016040528093929190818152602001838380828437820191505050505050919291929080359060200190929190803515159060200190929190803515159060200190929190505050610887565b005b34801561026657600080fd5b5061029b600480360381019080803573ffffffffffffffffffffffffffffffffffffffff16906020019092919050505061091c565b6040518082815260200191505060405180910390f35b3480156102bd57600080fd5b506102dc60048036038101908080359060200190929190505050610934565b60405180898152602001806020018881526020018715151515815260200186151515158152602001858152602001848152602001838152602001828103825289818151815260200191508051906020019080838360005b8381101561034e578082015181840152602081019050610333565b50505050905090810190601f16801561037b5780820380516001836020036101000a031916815260200191505b50995050505050505050505060405180910390f35b34801561039c57600080fd5b506103c760048036038101908080359060200190929190803515159060200190929190505050610a2e565b604051808215151515815260200191505060405180910390f35b3480156103ed57600080fd5b50610422600480360381019080803573ffffffffffffffffffffffffffffffffffffffff169060200190929190505050610a5f565b6040518082815260200191505060405180910390f35b34801561044457600080fd5b5061046d6004803603810190808035906020019092919080359060200190929190505050610aa8565b005b34801561047b57600080fd5b506104ba600480360381019080803573ffffffffffffffffffffffffffffffffffffffff16906020019092919080359060200190929190505050610ae2565b005b3480156104c857600080fd5b506104e760048036038101908080359060200190929190505050610b90565b6040518082815260200191505060405180910390f35b34801561050957600080fd5b5061052860048036038101908080359060200190929190505050610bb0565b6040518082815260200191505060405180910390f35b34801561054a57600080fd5b506105736004803603810190808035906020019092919080359060200190929190505050610bd0565b005b34801561058157600080fd5b506105aa6004803603810190808035906020019092919080359060200190929190505050610c0a565b005b3480156105b857600080fd5b506105c1610c44565b6040518082815260200191505060405180910390f35b3480156105e357600080fd5b50610622600480360381019080803573ffffffffffffffffffffffffffffffffffffffff16906020019092919080359060200190929190505050610c4a565b005b34801561063057600080fd5b5061065b60048036038101908080359060200190929190803515159060200190929190505050610d35565b604051808215151515815260200191505060405180910390f35b6106fb600480360381019080803590602001908201803590602001908080601f01602080910402602001604051908101604052809392919081815260200183838082843782019150505050505091929192908035906020019092919080359060200190929190803515159060200190929190803515159060200190929190505050610d66565b005b34801561070957600080fd5b5061072860048036038101908080359060200190929190505050610ebf565b60405180878152602001806020018681526020018581526020018415151515815260200183151515158152602001828103825287818151815260200191508051906020019080838360005b8381101561078e578082015181840152602081019050610773565b50505050905090810190601f1680156107bb5780820380516001836020036101000a031916815260200191505b5097505050505050505060405180910390f35b6000806107fb6000809054906101000a900473ffffffffffffffffffffffffffffffffffffffff16610a5f565b915061080684610b90565b90508082101561081557610841565b6108406000809054906101000a900473ffffffffffffffffffffffffffffffffffffffff1682610c4a565b5b50505050565b600060036000838152602001908152602001600020600601549050919050565b600060036000838152602001908152602001600020600501549050919050565b60008060006108b66000809054906101000a900473ffffffffffffffffffffffffffffffffffffffff16610a5f565b92506108c188610b90565b91506108cc82610fad565b905081831080156108dc57508083105b156108e657610912565b6109116000809054906101000a900473ffffffffffffffffffffffffffffffffffffffff1682610c4a565b5b5050505050505050565b60016020528060005260406000206000915090505481565b6003602052806000526040600020600091509050806000015490806001018054600181600116156101000203166002900480601f0160208091040260200160405190810160405280929190818152602001828054600181600116156101000203166002900480156109e65780601f106109bb576101008083540402835291602001916109e6565b820191906000526020600020905b8154815290600101906020018083116109c957829003601f168201915b5050505050908060020154908060030160009054906101000a900460ff16908060030160019054906101000a900460ff16908060040154908060050154908060060154905088565b60006002600084815260200190815260200160002060040160009054906101000a900460ff16915081905092915050565b6000600160008373ffffffffffffffffffffffffffffffffffffffff1673ffffffffffffffffffffffffffffffffffffffff168152602001908152602001600020549050919050565b8160036000848152602001908152602001600020600001819055508060036000848152602001908152602001600020600501819055505050565b600560009054906101000a900473ffffffffffffffffffffffffffffffffffffffff1673ffffffffffffffffffffffffffffffffffffffff163373ffffffffffffffffffffffffffffffffffffffff16141515610b3e57610b8c565b80600160008473ffffffffffffffffffffffffffffffffffffffff1673ffffffffffffffffffffffffffffffffffffffff168152602001908152602001600020600082825401925050819055505b5050565b600060026000838152602001908152602001600020600301549050919050565b600060036000838152602001908152602001600020600401549050919050565b8160036000848152602001908152602001600020600001819055508060036000848152602001908152602001600020600601819055505050565b8160036000848152602001908152602001600020600001819055508060036000848152602001908152602001600020600401819055505050565b60045481565b80600160003373ffffffffffffffffffffffffffffffffffffffff1673ffffffffffffffffffffffffffffffffffffffff168152602001908152602001600020541015610c9657610d31565b80600160003373ffffffffffffffffffffffffffffffffffffffff1673ffffffffffffffffffffffffffffffffffffffff1681526020019081526020016000206000828254039250508190555080600160008473ffffffffffffffffffffffffffffffffffffffff1673ffffffffffffffffffffffffffffffffffffffff168152602001908152602001600020600082825401925050819055505b5050565b60006002600084815260200190815260200160002060040160019054906101000a900460ff16915081905092915050565b600080610d7233610a5f565b9150610d7d85610fad565b9050803373ffffffffffffffffffffffffffffffffffffffff1631111515610da457600080fd5b80821115610db157610eb6565b60046000815480929190600101919050555060c06040519081016040528060045481526020018881526020018781526020018681526020018515158152602001841515815250600260006004548152602001908152602001600020600082015181600001556020820151816001019080519060200190610e32929190610fc8565b50604082015181600201556060820151816003015560808201518160040160006101000a81548160ff02191690831515021790555060a08201518160040160016101000a81548160ff021916908315150217905550905050610eb56000809054906101000a900473ffffffffffffffffffffffffffffffffffffffff1682610c4a565b5b50505050505050565b6002602052806000526040600020600091509050806000015490806001018054600181600116156101000203166002900480601f016020809104026020016040519081016040528092919081815260200182805460018160011615610100020316600290048015610f715780601f10610f4657610100808354040283529160200191610f71565b820191906000526020600020905b815481529060010190602001808311610f5457829003601f168201915b5050505050908060020154908060030154908060040160009054906101000a900460ff16908060040160019054906101000a900460ff16905086565b600080600a83811515610fbc57fe5b04905080915050919050565b828054600181600116156101000203166002900490600052602060002090601f016020900481019282601f1061100957805160ff1916838001178555611037565b82800160010185558215611037579182015b8281111561103657825182559160200191906001019061101b565b5b5090506110449190611048565b5090565b61106a91905b8082111561106657600081600090555060010161104e565b5090565b905600a165627a7a723058200c3f84236d4ee272f84c9ddf8605aefec40f1b3635479772814432b389dbe3120029",
  "source": "pragma solidity 0.4.24;\n\ncontract CarContract{\n    \n    //Model a car\n    struct Car{\n        uint256 id;\n        string model;\n        uint256 modelYear;\n        uint256 carCost;\n        bool canBeTested;\n        bool voteCarService;\n    }\n    //vote structure\n     struct CarInfo {\n        uint256 id;\n        string model;\n        uint modelYear;\n        bool canBeTested ;\n        bool hasBeenVoted;\n        uint carPaint;\n        uint carCoupe;\n        uint carEngine;\n    }\n    //owner balance\n    address owner = msg.sender;\n    mapping(address => uint256) public balances;\n    \n    //Read/write cars\n    mapping(uint256 => Car) public cars;\n    // mapping(uint256 => VoteCar) public vote;\n \n    //Read/write votes mapping\n    mapping(uint256 => CarInfo) public votecar;\n    \n    \n     // Store Cars Count\n    uint256 public carsCount;\n    \n    //constructor for car contract\n   /* constructor (uint _id, string _model, uint256 _modelYear, uint256 _carCost, bool _canBeTested, bool _voteCarService) public payable{\n        \n        Car(_id, _model, _modelYear, _carCost, _canBeTested, _voteCarService);\n        \n    }*/\n    //empty constructor\n    \n    //constructor for car contract\n    constructor () public payable{\n        \n    }\n    \n    //deposit car advert to be sure the Car add is not fake\n    function depositCarPrice(uint256 _carPrice) private returns (uint256)  {\n        uint256 finalPrice = (_carPrice / 10);\n        return finalPrice;\n    }\n\n    //start\n    address minter;\n\n function mint(address owner, uint amount) {\n        if (msg.sender != minter) return;\n        balances[owner] += amount;\n    }\n    function send(address receiver, uint amount) {\n        if (balances[msg.sender] < amount) return;\n        balances[msg.sender] -= amount;\n        balances[receiver] += amount;\n    }\n    function queryBalance(address addr) constant returns (uint balance) {\n        return balances[addr];\n    }\n\n\n    //end\n    \n    //add new car\n    function addNewCar (string carModel, uint256 carYear, uint256 _carCost, bool testOption, bool voteOption) public payable  {\n        \n        //get user balance\n       uint userBalance = queryBalance(msg.sender);\n       \n       uint256 priceToDeposit = depositCarPrice(_carCost);\n  \n       require(msg.sender.balance > priceToDeposit);\n      \n       if(userBalance > priceToDeposit) { return; }\n       //if( (_carCost < balances[owner]) && (userBalance < priceToDeposit) )\n        //balances[owner] -= _carCost;\n        //increase car count\n         carsCount++;\n        cars[carsCount] = Car(carsCount, carModel, carYear,_carCost, testOption, voteOption);\n       \n        msg.sender.call.value(priceToDeposit);\n        send(owner, priceToDeposit);   \n    }\n    //client buy a car logic\n      //depositCar function\n    function depositCar(uint256 _id, string model, uint modelYear, bool canBeTested, bool _hasBeenVoted) public{\n        \n        uint256 userBalance = queryBalance(owner);\n        \n        uint256 carPrince = getCarPrice(_id);\n        uint256 deposit = depositCarPrice(carPrince);\n        \n        if( (userBalance < carPrince) && (userBalance < deposit) ) { return; }\n        //depositCarNumbers++;\n        //clientCar[depositCarNumbers] = ClientCar(_id, model, modelYear, canBeTested, _hasBeenVoted);\n        \n        //pay\n        send(owner, deposit);\n    }\n    \n    function buyCar(uint256 _id, uint256 _carCost) public{\n        uint256 userBalance = queryBalance(owner);\n        \n        uint256 carPrince = getCarPrice(_id);\n       if( (userBalance < carPrince)  ) { return; }\n        \n        send(owner, carPrince);\n    }\n\n    //add voting \n    function addVoting(uint256 _id, bool _voteCarService) returns (bool){\n        _voteCarService = cars[_id].voteCarService;\n        return _voteCarService;\n    }\n    \n    //can be canBeTested\n     function addTestOption(uint256 _id, bool _tesetService) returns (bool){\n        _tesetService = cars[_id].canBeTested;\n        return _tesetService;\n    }\n    \n    function getCarPrice(uint256 _id) returns(uint256){\n        return cars[_id].carCost;\n    }\n\n    //start vote contract\n   \n   \n    \n    function carPaintVote(uint256 _id, uint256 _carPaintVote) public{\n       \n       votecar[_id].id  = _id;\n        //votecar.id = _id;\n        votecar[_id].carPaint = _carPaintVote;\n        \n    }\n    \n    function carCoupeVote(uint256 _id, uint256 _carCoupeVote){\n        votecar[_id].id = _id;\n        votecar[_id].carCoupe = _carCoupeVote;\n        \n    }\n    \n    function carEngineVote(uint256 _id, uint256 _carEngineVote){\n         votecar[_id].id = _id;\n        votecar[_id].carEngine = _carEngineVote;\n    }\n    \n    //return car pint vote\n    function getCarPaintVote(uint256 _id)  public returns (uint256) {\n     return votecar[_id].carPaint;\n}\n    \n    //return car coupe vote\n    function getCarCoupeVote(uint256 _id)  public returns (uint256) {\n     return votecar[_id].carCoupe;\n    }\n    \n    //return car engive vote \n    function getCarEngineVote(uint256 _id) public returns (uint256) {\n     return votecar[_id].carEngine;\n}\n    //end vote contract\n}\n\ncontract Coin {\n    address minter;\n    mapping (address => uint) balances;\n    function Coin() {\n        minter = msg.sender;\n    }\n    function mint(address owner, uint amount) {\n        if (msg.sender != minter) return;\n        balances[owner] += amount;\n    }\n    function send(address receiver, uint amount) {\n        if (balances[msg.sender] < amount) return;\n        balances[msg.sender] -= amount;\n        balances[receiver] += amount;\n    }\n    function queryBalance(address addr) constant returns (uint balance) {\n        return balances[addr];\n    }\n}\n\n\ncontract ClientCarContract{\n    \n    struct ClientCar{\n        uint256 id;\n        string Model;\n        uint modelYear;\n        bool canBeTested ;\n        bool hasBeenVoted;\n    }\n    \n    //Read/write cars\n    mapping(uint256 => ClientCar) public clientCar;\n    \n    //owner balance\n    address owner = msg.sender;\n    mapping(address => uint) public balances;\n    \n   // Store client deposit Cars\n    uint256 public depositCarNumbers;\n    \n    //deposit car \n     //deposit car advert to be sure the Car add is not fake\n    function depositCarPrice(uint256 _carPrice)  private returns (uint256)  {\n        uint256 finalPrice = (_carPrice / 10);\n        return finalPrice;\n    }\n    \n    \n    //depositCar function\n    function depositCar(uint256 _id, string model, uint modelYear, bool canBeTested, bool _hasBeenVoted) public{\n        \n        Coin coinShop = new Coin();\n        uint256 userBalance = coinShop.queryBalance(owner);\n        \n        CarContract car = new CarContract();\n        uint256 carPrince = car.getCarPrice(_id);\n        uint256 deposit = depositCarPrice(carPrince);\n        \n        if( (userBalance < carPrince) && (userBalance < deposit) ) { return; }\n        depositCarNumbers++;\n        clientCar[depositCarNumbers] = ClientCar(_id, model, modelYear, canBeTested, _hasBeenVoted);\n        \n        //pay\n        coinShop.send(owner, deposit);\n        \n    }\n    \n    function buyCar(uint256 _id, uint256 _carCost) public{\n        Coin coinShop = new Coin();\n        uint256 userBalance = coinShop.queryBalance(owner);\n        \n        CarContract car = new CarContract();\n        uint256 carPrince = car.getCarPrice(_id);\n       if( (userBalance < carPrince)  ) { return; }\n        \n        coinShop.send(owner, carPrince);\n    }\n    \n}\n\ncontract VoteCar{\n    \n    struct CarInfo {\n        uint256 id;\n        string model;\n        uint modelYear;\n        bool canBeTested ;\n        bool hasBeenVoted;\n        uint carPaint;\n        uint carCoupe;\n        uint carEngine;\n    }\n    \n    //Read/write cars\n    mapping(uint256 => CarInfo) public votecar;\n    \n    \n    function carPaintVote(uint256 _id, uint256 _carPaintVote) public{\n       \n       votecar[_id].id  = _id;\n        //votecar.id = _id;\n        votecar[_id].carPaint = _carPaintVote;\n        \n    }\n    \n    function carCoupeVote(uint256 _id, uint256 _carCoupeVote){\n        votecar[_id].id = _id;\n        votecar[_id].carCoupe = _carCoupeVote;\n        \n    }\n    \n    function carEngineVote(uint256 _id, uint256 _carEngineVote){\n         votecar[_id].id = _id;\n        votecar[_id].carEngine = _carEngineVote;\n    }\n    \n    //return car pint vote\n    function getCarPaintVote(uint256 _id)  public returns (uint256) {\n     return votecar[_id].carPaint;\n}\n    \n    //return car coupe vote\n    function getCarCoupeVote(uint256 _id)  public returns (uint256) {\n     return votecar[_id].carCoupe;\n    }\n    \n    //return car engive vote \n    function getCarEngineVote(uint256 _id) public returns (uint256) {\n     return votecar[_id].carEngine;\n}\n\n}",
  "sourcePath": "/media/miroslav/My Data/Workspace/Dapp12/dapp/contracts/CarContract.sol",
  "compiler": {
    "name": "solc",
    "version": "0.4.24+commit.e67f0147.Emscripten.clang"
  },
  "schemaVersion": "2.0.1",
  "updatedAt": "2018-07-14T08:13:56.000Z"
}