{
  "contractName": "Coin",
  "abi": [
    {
      "inputs": [],
      "payable": false,
      "stateMutability": "nonpayable",
      "type": "constructor"
    },
    {
      "constant": false,
      "inputs": [
        {
          "name": "owner",
          "type": "address"
        },
        {
          "name": "amount",
          "type": "uint256"
        }
      ],
      "name": "mint",
      "outputs": [],
      "payable": false,
      "stateMutability": "nonpayable",
      "type": "function"
    },
    {
      "constant": false,
      "inputs": [
        {
          "name": "receiver",
          "type": "address"
        },
        {
          "name": "amount",
          "type": "uint256"
        }
      ],
      "name": "send",
      "outputs": [],
      "payable": false,
      "stateMutability": "nonpayable",
      "type": "function"
    },
    {
      "constant": true,
      "inputs": [
        {
          "name": "addr",
          "type": "address"
        }
      ],
      "name": "queryBalance",
      "outputs": [
        {
          "name": "balance",
          "type": "uint256"
        }
      ],
      "payable": false,
      "stateMutability": "view",
      "type": "function"
    }
  ],
  "bytecode": "0x608060405234801561001057600080fd5b50336000806101000a81548173ffffffffffffffffffffffffffffffffffffffff021916908373ffffffffffffffffffffffffffffffffffffffff16021790555061035a806100606000396000f300608060405260043610610057576000357c0100000000000000000000000000000000000000000000000000000000900463ffffffff16806337f428411461005c57806340c10f19146100b3578063d0679d3414610100575b600080fd5b34801561006857600080fd5b5061009d600480360381019080803573ffffffffffffffffffffffffffffffffffffffff16906020019092919050505061014d565b6040518082815260200191505060405180910390f35b3480156100bf57600080fd5b506100fe600480360381019080803573ffffffffffffffffffffffffffffffffffffffff16906020019092919080359060200190929190505050610196565b005b34801561010c57600080fd5b5061014b600480360381019080803573ffffffffffffffffffffffffffffffffffffffff16906020019092919080359060200190929190505050610243565b005b6000600160008373ffffffffffffffffffffffffffffffffffffffff1673ffffffffffffffffffffffffffffffffffffffff168152602001908152602001600020549050919050565b6000809054906101000a900473ffffffffffffffffffffffffffffffffffffffff1673ffffffffffffffffffffffffffffffffffffffff163373ffffffffffffffffffffffffffffffffffffffff161415156101f15761023f565b80600160008473ffffffffffffffffffffffffffffffffffffffff1673ffffffffffffffffffffffffffffffffffffffff168152602001908152602001600020600082825401925050819055505b5050565b80600160003373ffffffffffffffffffffffffffffffffffffffff1673ffffffffffffffffffffffffffffffffffffffff16815260200190815260200160002054101561028f5761032a565b80600160003373ffffffffffffffffffffffffffffffffffffffff1673ffffffffffffffffffffffffffffffffffffffff1681526020019081526020016000206000828254039250508190555080600160008473ffffffffffffffffffffffffffffffffffffffff1673ffffffffffffffffffffffffffffffffffffffff168152602001908152602001600020600082825401925050819055505b50505600a165627a7a723058203d744045ac9d22fe64e4195b7de944d1a7cff8362323ee8ac2c2d8c9c96acc320029",
  "source": "pragma solidity 0.4.24;\n\ncontract CarContract{\n    \n    //Model a car\n    struct Car{\n        uint256 id;\n        string model;\n        uint256 modelYear;\n        uint256 carCost;\n        bool canBeTested;\n        bool voteCarService;\n    }\n    //vote structure\n     struct CarInfo {\n        uint256 id;\n        string model;\n        uint modelYear;\n        bool canBeTested ;\n        bool hasBeenVoted;\n        uint carPaint;\n        uint carCoupe;\n        uint carEngine;\n    }\n    //owner balance\n    address owner = msg.sender;\n    mapping(address => uint256) public balances;\n    \n    //Read/write cars\n    mapping(uint256 => Car) public cars;\n    // mapping(uint256 => VoteCar) public vote;\n \n    //Read/write votes mapping\n    mapping(uint256 => CarInfo) public votecar;\n    \n    \n     // Store Cars Count\n    uint256 public carsCount;\n    \n    //constructor for car contract\n   /* constructor (uint _id, string _model, uint256 _modelYear, uint256 _carCost, bool _canBeTested, bool _voteCarService) public payable{\n        \n        Car(_id, _model, _modelYear, _carCost, _canBeTested, _voteCarService);\n        \n    }*/\n    //empty constructor\n    \n    //constructor for car contract\n    constructor () public payable{\n        \n    }\n    \n    //deposit car advert to be sure the Car add is not fake\n    function depositCarPrice(uint256 _carPrice) private returns (uint256)  {\n        uint256 finalPrice = (_carPrice / 10);\n        return finalPrice;\n    }\n\n    //start\n    address minter;\n\n function mint(address owner, uint amount) {\n        if (msg.sender != minter) return;\n        balances[owner] += amount;\n    }\n    function send(address receiver, uint amount) {\n        if (balances[msg.sender] < amount) return;\n        balances[msg.sender] -= amount;\n        balances[receiver] += amount;\n    }\n    function queryBalance(address addr) constant returns (uint balance) {\n        return balances[addr];\n    }\n\n\n    //end\n    \n    //add new car\n    function addNewCar (string carModel, uint256 carYear, uint256 _carCost, bool testOption, bool voteOption) public payable  {\n        \n        //get user balance\n       uint userBalance = queryBalance(msg.sender);\n       \n       uint256 priceToDeposit = depositCarPrice(_carCost);\n  \n       require(msg.sender.balance > priceToDeposit);\n      \n       if(userBalance > priceToDeposit) { return; }\n       //if( (_carCost < balances[owner]) && (userBalance < priceToDeposit) )\n        //balances[owner] -= _carCost;\n        //increase car count\n         carsCount++;\n        cars[carsCount] = Car(carsCount, carModel, carYear,_carCost, testOption, voteOption);\n       \n        msg.sender.call.value(priceToDeposit);\n        send(owner, priceToDeposit);   \n    }\n    //client buy a car logic\n      //depositCar function\n    function depositCar(uint256 _id, string model, uint modelYear, bool canBeTested, bool _hasBeenVoted) public{\n        \n        uint256 userBalance = queryBalance(owner);\n        \n        uint256 carPrince = getCarPrice(_id);\n        uint256 deposit = depositCarPrice(carPrince);\n        \n        if( (userBalance < carPrince) && (userBalance < deposit) ) { return; }\n        //depositCarNumbers++;\n        //clientCar[depositCarNumbers] = ClientCar(_id, model, modelYear, canBeTested, _hasBeenVoted);\n        \n        //pay\n        send(owner, deposit);\n    }\n    \n    function buyCar(uint256 _id, uint256 _carCost) public{\n        uint256 userBalance = queryBalance(owner);\n        \n        uint256 carPrince = getCarPrice(_id);\n       if( (userBalance < carPrince)  ) { return; }\n        \n        send(owner, carPrince);\n    }\n\n    //add voting \n    function addVoting(uint256 _id, bool _voteCarService) returns (bool){\n        _voteCarService = cars[_id].voteCarService;\n        return _voteCarService;\n    }\n    \n    //can be canBeTested\n     function addTestOption(uint256 _id, bool _tesetService) returns (bool){\n        _tesetService = cars[_id].canBeTested;\n        return _tesetService;\n    }\n    \n    function getCarPrice(uint256 _id) returns(uint256){\n        return cars[_id].carCost;\n    }\n\n    //start vote contract\n   \n   \n    \n    function carPaintVote(uint256 _id, uint256 _carPaintVote) public{\n       \n       votecar[_id].id  = _id;\n        //votecar.id = _id;\n        votecar[_id].carPaint = _carPaintVote;\n        \n    }\n    \n    function carCoupeVote(uint256 _id, uint256 _carCoupeVote){\n        votecar[_id].id = _id;\n        votecar[_id].carCoupe = _carCoupeVote;\n        \n    }\n    \n    function carEngineVote(uint256 _id, uint256 _carEngineVote){\n         votecar[_id].id = _id;\n        votecar[_id].carEngine = _carEngineVote;\n    }\n    \n    //return car pint vote\n    function getCarPaintVote(uint256 _id)  public returns (uint256) {\n     return votecar[_id].carPaint;\n}\n    \n    //return car coupe vote\n    function getCarCoupeVote(uint256 _id)  public returns (uint256) {\n     return votecar[_id].carCoupe;\n    }\n    \n    //return car engive vote \n    function getCarEngineVote(uint256 _id) public returns (uint256) {\n     return votecar[_id].carEngine;\n}\n    //end vote contract\n}\n\ncontract Coin {\n    address minter;\n    mapping (address => uint) balances;\n    function Coin() {\n        minter = msg.sender;\n    }\n    function mint(address owner, uint amount) {\n        if (msg.sender != minter) return;\n        balances[owner] += amount;\n    }\n    function send(address receiver, uint amount) {\n        if (balances[msg.sender] < amount) return;\n        balances[msg.sender] -= amount;\n        balances[receiver] += amount;\n    }\n    function queryBalance(address addr) constant returns (uint balance) {\n        return balances[addr];\n    }\n}\n\n\ncontract ClientCarContract{\n    \n    struct ClientCar{\n        uint256 id;\n        string Model;\n        uint modelYear;\n        bool canBeTested ;\n        bool hasBeenVoted;\n    }\n    \n    //Read/write cars\n    mapping(uint256 => ClientCar) public clientCar;\n    \n    //owner balance\n    address owner = msg.sender;\n    mapping(address => uint) public balances;\n    \n   // Store client deposit Cars\n    uint256 public depositCarNumbers;\n    \n    //deposit car \n     //deposit car advert to be sure the Car add is not fake\n    function depositCarPrice(uint256 _carPrice)  private returns (uint256)  {\n        uint256 finalPrice = (_carPrice / 10);\n        return finalPrice;\n    }\n    \n    \n    //depositCar function\n    function depositCar(uint256 _id, string model, uint modelYear, bool canBeTested, bool _hasBeenVoted) public{\n        \n        Coin coinShop = new Coin();\n        uint256 userBalance = coinShop.queryBalance(owner);\n        \n        CarContract car = new CarContract();\n        uint256 carPrince = car.getCarPrice(_id);\n        uint256 deposit = depositCarPrice(carPrince);\n        \n        if( (userBalance < carPrince) && (userBalance < deposit) ) { return; }\n        depositCarNumbers++;\n        clientCar[depositCarNumbers] = ClientCar(_id, model, modelYear, canBeTested, _hasBeenVoted);\n        \n        //pay\n        coinShop.send(owner, deposit);\n        \n    }\n    \n    function buyCar(uint256 _id, uint256 _carCost) public{\n        Coin coinShop = new Coin();\n        uint256 userBalance = coinShop.queryBalance(owner);\n        \n        CarContract car = new CarContract();\n        uint256 carPrince = car.getCarPrice(_id);\n       if( (userBalance < carPrince)  ) { return; }\n        \n        coinShop.send(owner, carPrince);\n    }\n    \n}\n\ncontract VoteCar{\n    \n    struct CarInfo {\n        uint256 id;\n        string model;\n        uint modelYear;\n        bool canBeTested ;\n        bool hasBeenVoted;\n        uint carPaint;\n        uint carCoupe;\n        uint carEngine;\n    }\n    \n    //Read/write cars\n    mapping(uint256 => CarInfo) public votecar;\n    \n    \n    function carPaintVote(uint256 _id, uint256 _carPaintVote) public{\n       \n       votecar[_id].id  = _id;\n        //votecar.id = _id;\n        votecar[_id].carPaint = _carPaintVote;\n        \n    }\n    \n    function carCoupeVote(uint256 _id, uint256 _carCoupeVote){\n        votecar[_id].id = _id;\n        votecar[_id].carCoupe = _carCoupeVote;\n        \n    }\n    \n    function carEngineVote(uint256 _id, uint256 _carEngineVote){\n         votecar[_id].id = _id;\n        votecar[_id].carEngine = _carEngineVote;\n    }\n    \n    //return car pint vote\n    function getCarPaintVote(uint256 _id)  public returns (uint256) {\n     return votecar[_id].carPaint;\n}\n    \n    //return car coupe vote\n    function getCarCoupeVote(uint256 _id)  public returns (uint256) {\n     return votecar[_id].carCoupe;\n    }\n    \n    //return car engive vote \n    function getCarEngineVote(uint256 _id) public returns (uint256) {\n     return votecar[_id].carEngine;\n}\n\n}",
  "sourcePath": "/media/miroslav/My Data/Workspace/Dapp12/dapp/contracts/CarContract.sol",
  "compiler": {
    "name": "solc",
    "version": "0.4.24+commit.e67f0147.Emscripten.clang"
  },
  "schemaVersion": "2.0.1",
  "updatedAt": "2018-07-14T07:44:04.195Z"
}