{
  "contractName": "SellCar",
  "abi": [
    {
      "constant": true,
      "inputs": [
        {
          "name": "",
          "type": "address"
        }
      ],
      "name": "balances",
      "outputs": [
        {
          "name": "",
          "type": "uint256"
        }
      ],
      "payable": false,
      "stateMutability": "view",
      "type": "function"
    },
    {
      "constant": true,
      "inputs": [],
      "name": "carsCount",
      "outputs": [
        {
          "name": "",
          "type": "uint256"
        }
      ],
      "payable": false,
      "stateMutability": "view",
      "type": "function"
    },
    {
      "constant": true,
      "inputs": [
        {
          "name": "",
          "type": "uint256"
        }
      ],
      "name": "cars",
      "outputs": [
        {
          "name": "id",
          "type": "uint256"
        },
        {
          "name": "model",
          "type": "string"
        },
        {
          "name": "modelYear",
          "type": "uint256"
        },
        {
          "name": "carCost",
          "type": "uint256"
        },
        {
          "name": "canBeTested",
          "type": "bool"
        },
        {
          "name": "voteCarService",
          "type": "bool"
        }
      ],
      "payable": false,
      "stateMutability": "view",
      "type": "function"
    },
    {
      "inputs": [],
      "payable": true,
      "stateMutability": "payable",
      "type": "constructor"
    },
    {
      "constant": false,
      "inputs": [
        {
          "name": "carModel",
          "type": "string"
        },
        {
          "name": "carYear",
          "type": "uint256"
        },
        {
          "name": "_carCost",
          "type": "uint256"
        },
        {
          "name": "testOption",
          "type": "bool"
        },
        {
          "name": "voteOption",
          "type": "bool"
        }
      ],
      "name": "addNewCar",
      "outputs": [],
      "payable": true,
      "stateMutability": "payable",
      "type": "function"
    },
    {
      "constant": false,
      "inputs": [
        {
          "name": "_id",
          "type": "uint256"
        },
        {
          "name": "_voteCarService",
          "type": "bool"
        }
      ],
      "name": "addVoting",
      "outputs": [
        {
          "name": "",
          "type": "bool"
        }
      ],
      "payable": false,
      "stateMutability": "nonpayable",
      "type": "function"
    },
    {
      "constant": false,
      "inputs": [
        {
          "name": "_id",
          "type": "uint256"
        },
        {
          "name": "_tesetService",
          "type": "bool"
        }
      ],
      "name": "addTestOption",
      "outputs": [
        {
          "name": "",
          "type": "bool"
        }
      ],
      "payable": false,
      "stateMutability": "nonpayable",
      "type": "function"
    },
    {
      "constant": false,
      "inputs": [
        {
          "name": "_id",
          "type": "uint256"
        }
      ],
      "name": "getCarPrice",
      "outputs": [
        {
          "name": "",
          "type": "uint256"
        }
      ],
      "payable": false,
      "stateMutability": "nonpayable",
      "type": "function"
    }
  ],
  "bytecode": "0x6080604052336000806101000a81548173ffffffffffffffffffffffffffffffffffffffff021916908373ffffffffffffffffffffffffffffffffffffffff160217905550610c8b806100536000396000f300608060405260043610610083576000357c0100000000000000000000000000000000000000000000000000000000900463ffffffff16806327e235e31461008857806336f4245d146100df57806371e69a3214610130578063c3d97a2714610171578063d5f354f31461019c578063f2831b89146101ed578063f7746e3614610275575b600080fd5b34801561009457600080fd5b506100c9600480360381019080803573ffffffffffffffffffffffffffffffffffffffff169060200190929190505050610346565b6040518082815260200191505060405180910390f35b3480156100eb57600080fd5b506101166004803603810190808035906020019092919080351515906020019092919050505061035e565b604051808215151515815260200191505060405180910390f35b34801561013c57600080fd5b5061015b6004803603810190808035906020019092919050505061038f565b6040518082815260200191505060405180910390f35b34801561017d57600080fd5b506101866103af565b6040518082815260200191505060405180910390f35b3480156101a857600080fd5b506101d3600480360381019080803590602001909291908035151590602001909291905050506103b5565b604051808215151515815260200191505060405180910390f35b610273600480360381019080803590602001908201803590602001908080601f016020809104026020016040519081016040528093929190818152602001838380828437820191505050505050919291929080359060200190929190803590602001909291908035151590602001909291908035151590602001909291905050506103e6565b005b34801561028157600080fd5b506102a0600480360381019080803590602001909291905050506106e7565b60405180878152602001806020018681526020018581526020018415151515815260200183151515158152602001828103825287818151815260200191508051906020019080838360005b838110156103065780820151818401526020810190506102eb565b50505050905090810190601f1680156103335780820380516001836020036101000a031916815260200191505b5097505050505050505060405180910390f35b60016020528060005260406000206000915090505481565b60006002600084815260200190815260200160002060040160009054906101000a900460ff16915081905092915050565b600060026000838152602001908152602001600020600301549050919050565b60035481565b60006002600084815260200190815260200160002060040160019054906101000a900460ff16915081905092915050565b60008060006103f36107f0565b604051809103906000f08015801561040f573d6000803e3d6000fd5b5092508273ffffffffffffffffffffffffffffffffffffffff166337f42841336040518263ffffffff167c0100000000000000000000000000000000000000000000000000000000028152600401808273ffffffffffffffffffffffffffffffffffffffff1673ffffffffffffffffffffffffffffffffffffffff168152602001915050602060405180830381600087803b1580156104ad57600080fd5b505af11580156104c1573d6000803e3d6000fd5b505050506040513d60208110156104d757600080fd5b810190808051906020019092919050505091506104f3866107d5565b9050803373ffffffffffffffffffffffffffffffffffffffff163111151561051a57600080fd5b80821015610527576106dd565b8273ffffffffffffffffffffffffffffffffffffffff1663d0679d346000809054906101000a900473ffffffffffffffffffffffffffffffffffffffff16836040518363ffffffff167c0100000000000000000000000000000000000000000000000000000000028152600401808373ffffffffffffffffffffffffffffffffffffffff1673ffffffffffffffffffffffffffffffffffffffff16815260200182815260200192505050600060405180830381600087803b1580156105eb57600080fd5b505af11580156105ff573d6000803e3d6000fd5b5050505060036000815480929190600101919050555060c06040519081016040528060035481526020018981526020018881526020018781526020018615158152602001851515815250600260006003548152602001908152602001600020600082015181600001556020820151816001019080519060200190610684929190610800565b50604082015181600201556060820151816003015560808201518160040160006101000a81548160ff02191690831515021790555060a08201518160040160016101000a81548160ff0219169083151502179055509050505b5050505050505050565b6002602052806000526040600020600091509050806000015490806001018054600181600116156101000203166002900480601f0160208091040260200160405190810160405280929190818152602001828054600181600116156101000203166002900480156107995780601f1061076e57610100808354040283529160200191610799565b820191906000526020600020905b81548152906001019060200180831161077c57829003601f168201915b5050505050908060020154908060030154908060040160009054906101000a900460ff16908060040160019054906101000a900460ff16905086565b600080600a838115156107e457fe5b04905080915050919050565b6040516103ba806108a683390190565b828054600181600116156101000203166002900490600052602060002090601f016020900481019282601f1061084157805160ff191683800117855561086f565b8280016001018555821561086f579182015b8281111561086e578251825591602001919060010190610853565b5b50905061087c9190610880565b5090565b6108a291905b8082111561089e576000816000905550600101610886565b5090565b905600608060405234801561001057600080fd5b50336000806101000a81548173ffffffffffffffffffffffffffffffffffffffff021916908373ffffffffffffffffffffffffffffffffffffffff16021790555061035a806100606000396000f300608060405260043610610057576000357c0100000000000000000000000000000000000000000000000000000000900463ffffffff16806337f428411461005c57806340c10f19146100b3578063d0679d3414610100575b600080fd5b34801561006857600080fd5b5061009d600480360381019080803573ffffffffffffffffffffffffffffffffffffffff16906020019092919050505061014d565b6040518082815260200191505060405180910390f35b3480156100bf57600080fd5b506100fe600480360381019080803573ffffffffffffffffffffffffffffffffffffffff16906020019092919080359060200190929190505050610196565b005b34801561010c57600080fd5b5061014b600480360381019080803573ffffffffffffffffffffffffffffffffffffffff16906020019092919080359060200190929190505050610243565b005b6000600160008373ffffffffffffffffffffffffffffffffffffffff1673ffffffffffffffffffffffffffffffffffffffff168152602001908152602001600020549050919050565b6000809054906101000a900473ffffffffffffffffffffffffffffffffffffffff1673ffffffffffffffffffffffffffffffffffffffff163373ffffffffffffffffffffffffffffffffffffffff161415156101f15761023f565b80600160008473ffffffffffffffffffffffffffffffffffffffff1673ffffffffffffffffffffffffffffffffffffffff168152602001908152602001600020600082825401925050819055505b5050565b80600160003373ffffffffffffffffffffffffffffffffffffffff1673ffffffffffffffffffffffffffffffffffffffff16815260200190815260200160002054101561028f5761032a565b80600160003373ffffffffffffffffffffffffffffffffffffffff1673ffffffffffffffffffffffffffffffffffffffff1681526020019081526020016000206000828254039250508190555080600160008473ffffffffffffffffffffffffffffffffffffffff1673ffffffffffffffffffffffffffffffffffffffff168152602001908152602001600020600082825401925050819055505b50505600a165627a7a72305820e0d9aa7ee733a8f9cc3517251ff921e4f10c688278ccdf4983d1cede49c235160029a165627a7a7230582010f161df3ce2b375d71ab4a01f540c16ef39c523caa1dffffdaef14c38b13e2b0029",
  "source": "pragma solidity 0.4.24;\n\ncontract SellCar{\n    \n    //Model a car\n    struct Car{\n        uint256 id;\n        string model;\n        uint256 modelYear;\n        uint256 carCost;\n        bool canBeTested;\n        bool voteCarService;\n    }\n    \n    //owner balance\n    address owner = msg.sender;\n    mapping(address => uint256) public balances;\n    \n    //Read/write cars\n    mapping(uint256 => Car) public cars;\n    // mapping(uint256 => VoteCar) public vote;\n    \n     // Store Cars Count\n    uint256 public carsCount;\n    \n    //constructor for car contract\n   /* constructor (uint _id, string _model, uint256 _modelYear, uint256 _carCost, bool _canBeTested, bool _voteCarService) public payable{\n        \n        Car(_id, _model, _modelYear, _carCost, _canBeTested, _voteCarService);\n        \n    }*/\n    //empty constructor\n    \n    //constructor for car contract\n    constructor () public payable{\n        \n    }\n    \n    //deposit car advert to be sure the Car add is not fake\n    function depositCarAdvert(uint256 _carPrice) private returns (uint256)  {\n        uint256 finalPrice = (_carPrice / 10);\n        return finalPrice;\n    }\n    \n    //add new car\n    function addNewCar (string carModel, uint256 carYear, uint256 _carCost, bool testOption, bool voteOption) public payable  {\n        \n        //get user balance\n       Coin coinShop = new Coin();\n       uint userBalance = coinShop.queryBalance(msg.sender);\n       \n       uint256 priceToDeposit = depositCarAdvert(_carCost);\n  \n       require(msg.sender.balance > priceToDeposit);\n       if(userBalance < priceToDeposit) { return; }\n       //if( (_carCost < balances[owner]) && (userBalance < priceToDeposit) )\n        //balances[owner] -= _carCost;\n        coinShop.send(owner, priceToDeposit);\n        //increase car count\n        carsCount++;\n        cars[carsCount] = Car(carsCount, carModel, carYear,_carCost, testOption, voteOption);\n    }\n    \n\n    //add voting \n    function addVoting(uint256 _id, bool _voteCarService) returns (bool){\n        _voteCarService = cars[_id].voteCarService;\n        return _voteCarService;\n    }\n    \n    //can be canBeTested\n     function addTestOption(uint256 _id, bool _tesetService) returns (bool){\n        _tesetService = cars[_id].canBeTested;\n        return _tesetService;\n    }\n    \n    function getCarPrice(uint256 _id) returns(uint256){\n        return cars[_id].carCost;\n    }\n}\n\ncontract Coin {\n    address minter;\n    mapping (address => uint) balances;\n    function Coin() {\n        minter = msg.sender;\n    }\n    function mint(address owner, uint amount) {\n        if (msg.sender != minter) return;\n        balances[owner] += amount;\n    }\n    function send(address receiver, uint amount) {\n        if (balances[msg.sender] < amount) return;\n        balances[msg.sender] -= amount;\n        balances[receiver] += amount;\n    }\n    function queryBalance(address addr) constant returns (uint balance) {\n        return balances[addr];\n    }\n}\n\n\ncontract ClientCarContract{\n    \n    struct ClientCar{\n        uint256 id;\n        string Model;\n        uint modelYear;\n        bool canBeTested ;\n        bool hasBeenVoted;\n    }\n    \n    //Read/write cars\n    mapping(uint256 => ClientCar) public clientCar;\n    \n    //owner balance\n    address owner = msg.sender;\n    mapping(address => uint) public balances;\n    \n   // Store client deposit Cars\n    uint256 public depositCarNumbers;\n    \n    //deposit car \n     //deposit car advert to be sure the Car add is not fake\n    function depositCar(uint256 _carPrice)  private returns (uint256)  {\n        uint256 finalPrice = (_carPrice / 10);\n        return finalPrice;\n    }\n    \n    \n    //depositCar function\n    function depositCar(uint256 _id, string model, uint modelYear, bool canBeTested, bool _hasBeenVoted) public{\n        \n        Coin coinShop = new Coin();\n        uint256 userBalance = coinShop.queryBalance(owner);\n        \n        SellCar car = new SellCar();\n        uint256 carPrince = car.getCarPrice(_id);\n        uint256 deposit = depositCar(carPrince);\n        \n        if( (userBalance < carPrince) && (userBalance < deposit) ) { return; }\n        depositCarNumbers++;\n        clientCar[depositCarNumbers] = ClientCar(_id, model, modelYear, canBeTested, _hasBeenVoted);\n        \n        //pay\n        coinShop.send(owner, deposit);\n        \n    }\n    \n    function buyCar(uint256 _id, uint256 _carCost) public{\n        Coin coinShop = new Coin();\n        uint256 userBalance = coinShop.queryBalance(owner);\n        \n        SellCar car = new SellCar();\n        uint256 carPrince = car.getCarPrice(_id);\n       if( (userBalance < carPrince)  ) { return; }\n        \n        coinShop.send(owner, carPrince);\n    }\n    \n}\n\ncontract VoteCar{\n    \n    struct CarInfo {\n        uint256 id;\n        string model;\n        uint modelYear;\n        bool canBeTested ;\n        bool hasBeenVoted;\n        uint carPaint;\n        uint carCoupe;\n        uint carEngine;\n    }\n    \n    //Read/write cars\n    mapping(uint256 => CarInfo) public votecar;\n    \n    \n    function carPaintVote(uint256 _id, uint256 _carPaintVote) public{\n       \n       votecar[_id].id  = _id;\n        //votecar.id = _id;\n        votecar[_id].carPaint = _carPaintVote;\n        \n    }\n    \n    function carCoupeVote(uint256 _id, uint256 _carCoupeVote){\n        votecar[_id].id = _id;\n        votecar[_id].carCoupe = _carCoupeVote;\n        \n    }\n    \n    function carEngineVote(uint256 _id, uint256 _carEngineVote){\n         votecar[_id].id = _id;\n        votecar[_id].carEngine = _carEngineVote;\n    }\n    \n    //return car pint vote\n    function getCarPaintVote(uint256 _id)  public returns (uint256) {\n        return votecar[_id].carPaint;\n    }\n    \n    //return car coupe vote\n     function getCarCoupeVote(uint256 _id)  public returns (uint256) {\n        return votecar[_id].carCoupe;\n    }\n    \n    //return car engive vote \n      function getCarEngineVote(uint256 _id) public returns (uint256) {\n        return votecar[_id].carEngine;\n    }\n\n}",
  "sourcePath": "/media/miroslav/7fb03570-d397-4695-9359-3bd79a00901d/Workspace/Dapp/dapp/contracts/CarContract.sol",
  "compiler": {
    "name": "solc",
    "version": "0.4.24+commit.e67f0147.Emscripten.clang"
  },
  "schemaVersion": "2.0.1",
  "updatedAt": "2018-07-12T20:09:47.705Z"
}