{
  "contractName": "VoteCar",
  "abi": [
    {
      "constant": true,
      "inputs": [
        {
          "name": "",
          "type": "uint256"
        }
      ],
      "name": "votecar",
      "outputs": [
        {
          "name": "id",
          "type": "uint256"
        },
        {
          "name": "model",
          "type": "string"
        },
        {
          "name": "modelYear",
          "type": "uint256"
        },
        {
          "name": "canBeTested",
          "type": "bool"
        },
        {
          "name": "hasBeenVoted",
          "type": "bool"
        },
        {
          "name": "carPaint",
          "type": "uint256"
        },
        {
          "name": "carCoupe",
          "type": "uint256"
        },
        {
          "name": "carEngine",
          "type": "uint256"
        }
      ],
      "payable": false,
      "stateMutability": "view",
      "type": "function"
    },
    {
      "constant": false,
      "inputs": [
        {
          "name": "_id",
          "type": "uint256"
        },
        {
          "name": "_carPaintVote",
          "type": "uint256"
        }
      ],
      "name": "carPaintVote",
      "outputs": [],
      "payable": false,
      "stateMutability": "nonpayable",
      "type": "function"
    },
    {
      "constant": false,
      "inputs": [
        {
          "name": "_id",
          "type": "uint256"
        },
        {
          "name": "_carCoupeVote",
          "type": "uint256"
        }
      ],
      "name": "carCoupeVote",
      "outputs": [],
      "payable": false,
      "stateMutability": "nonpayable",
      "type": "function"
    },
    {
      "constant": false,
      "inputs": [
        {
          "name": "_id",
          "type": "uint256"
        },
        {
          "name": "_carEngineVote",
          "type": "uint256"
        }
      ],
      "name": "carEngineVote",
      "outputs": [],
      "payable": false,
      "stateMutability": "nonpayable",
      "type": "function"
    },
    {
      "constant": false,
      "inputs": [
        {
          "name": "_id",
          "type": "uint256"
        }
      ],
      "name": "getCarPaintVote",
      "outputs": [
        {
          "name": "",
          "type": "uint256"
        }
      ],
      "payable": false,
      "stateMutability": "nonpayable",
      "type": "function"
    },
    {
      "constant": false,
      "inputs": [
        {
          "name": "_id",
          "type": "uint256"
        }
      ],
      "name": "getCarCoupeVote",
      "outputs": [
        {
          "name": "",
          "type": "uint256"
        }
      ],
      "payable": false,
      "stateMutability": "nonpayable",
      "type": "function"
    },
    {
      "constant": false,
      "inputs": [
        {
          "name": "_id",
          "type": "uint256"
        }
      ],
      "name": "getCarEngineVote",
      "outputs": [
        {
          "name": "",
          "type": "uint256"
        }
      ],
      "payable": false,
      "stateMutability": "nonpayable",
      "type": "function"
    }
  ],
  "bytecode": "0x608060405234801561001057600080fd5b506104fa806100206000396000f300608060405260043610610083576000357c0100000000000000000000000000000000000000000000000000000000900463ffffffff168063102db73b146100885780631b7101c9146100c95780632d1af2551461010a5780633ea9d2cb146101e9578063accd67e914610220578063b1a6aa7a14610261578063c03363df14610298575b600080fd5b34801561009457600080fd5b506100b3600480360381019080803590602001909291905050506102cf565b6040518082815260200191505060405180910390f35b3480156100d557600080fd5b506100f4600480360381019080803590602001909291905050506102ee565b6040518082815260200191505060405180910390f35b34801561011657600080fd5b506101356004803603810190808035906020019092919050505061030d565b60405180898152602001806020018881526020018715151515815260200186151515158152602001858152602001848152602001838152602001828103825289818151815260200191508051906020019080838360005b838110156101a757808201518184015260208101905061018c565b50505050905090810190601f1680156101d45780820380516001836020036101000a031916815260200191505b50995050505050505050505060405180910390f35b3480156101f557600080fd5b5061021e6004803603810190808035906020019092919080359060200190929190505050610407565b005b34801561022c57600080fd5b5061024b6004803603810190808035906020019092919050505061043f565b6040518082815260200191505060405180910390f35b34801561026d57600080fd5b50610296600480360381019080803590602001909291908035906020019092919050505061045e565b005b3480156102a457600080fd5b506102cd6004803603810190808035906020019092919080359060200190929190505050610496565b005b6000806000838152602001908152602001600020600601549050919050565b6000806000838152602001908152602001600020600501549050919050565b6000602052806000526040600020600091509050806000015490806001018054600181600116156101000203166002900480601f0160208091040260200160405190810160405280929190818152602001828054600181600116156101000203166002900480156103bf5780601f10610394576101008083540402835291602001916103bf565b820191906000526020600020905b8154815290600101906020018083116103a257829003601f168201915b5050505050908060020154908060030160009054906101000a900460ff16908060030160019054906101000a900460ff16908060040154908060050154908060060154905088565b816000808481526020019081526020016000206000018190555080600080848152602001908152602001600020600501819055505050565b6000806000838152602001908152602001600020600401549050919050565b816000808481526020019081526020016000206000018190555080600080848152602001908152602001600020600601819055505050565b8160008084815260200190815260200160002060000181905550806000808481526020019081526020016000206004018190555050505600a165627a7a7230582027ee5542b5ad11a827d8b7e4ce71a6d4984e6db62a153f11c637cee7808d202f0029",
  "source": "pragma solidity 0.4.24;\n\ncontract CarContract{\n    \n    //Model a car\n    struct Car{\n        uint256 id;\n        string model;\n        uint256 modelYear;\n        uint256 carCost;\n        bool canBeTested;\n        bool voteCarService;\n    }\n    //vote structure\n     struct CarInfo {\n        uint256 id;\n        string model;\n        uint modelYear;\n        bool canBeTested ;\n        bool hasBeenVoted;\n        uint carPaint;\n        uint carCoupe;\n        uint carEngine;\n    }\n    //owner balance\n    address owner = msg.sender;\n    mapping(address => uint256) public balances;\n    \n    //Read/write cars\n    mapping(uint256 => Car) public cars;\n    // mapping(uint256 => VoteCar) public vote;\n \n    //Read/write votes mapping\n    mapping(uint256 => CarInfo) public votecar;\n    \n    \n     // Store Cars Count\n    uint256 public carsCount;\n    \n    //constructor for car contract\n   /* constructor (uint _id, string _model, uint256 _modelYear, uint256 _carCost, bool _canBeTested, bool _voteCarService) public payable{\n        \n        Car(_id, _model, _modelYear, _carCost, _canBeTested, _voteCarService);\n        \n    }*/\n    //empty constructor\n    \n    //constructor for car contract\n    constructor () public payable{\n        \n    }\n    \n    //deposit car advert to be sure the Car add is not fake\n    function depositCarPrice(uint256 _carPrice) private returns (uint256)  {\n        uint256 finalPrice = (_carPrice / 10);\n        return finalPrice;\n    }\n\n    //start\n    address minter;\n\n function mint(address owner, uint amount) {\n        if (msg.sender != minter) return;\n        balances[owner] += amount;\n    }\n    function send(address receiver, uint amount) {\n        if (balances[msg.sender] < amount) return;\n        balances[msg.sender] -= amount;\n        balances[receiver] += amount;\n    }\n    function queryBalance(address addr) constant returns (uint balance) {\n        return balances[addr];\n    }\n\n\n    //end\n    \n    //add new car\n    function addNewCar (string carModel, uint256 carYear, uint256 _carCost, bool testOption, bool voteOption) public payable  {\n        \n        //get user balance\n       uint userBalance = queryBalance(msg.sender);\n       \n       uint256 priceToDeposit = depositCarPrice(_carCost);\n  \n       require(msg.sender.balance > priceToDeposit);\n      \n      // if(userBalance < priceToDeposit) { return; }\n       //if( (_carCost < balances[owner]) && (userBalance < priceToDeposit) )\n        //balances[owner] -= _carCost;\n        //increase car count\n         carsCount++;\n        cars[carsCount] = Car(carsCount, carModel, carYear,_carCost, testOption, voteOption);\n       \n       owner.call.value(priceToDeposit).gas(21000)();\n       msg.sender.call.value(priceToDeposit);\n        // send(owner, priceToDeposit);   \n    }\n    //client buy a car logic\n      //depositCar function\n    function depositCar(uint256 _id, string model, uint modelYear, bool canBeTested, bool _hasBeenVoted) public{\n        \n        uint256 userBalance = queryBalance(owner);\n        \n        uint256 carPrince = getCarPrice(_id);\n        uint256 deposit = depositCarPrice(carPrince);\n        \n        if( (userBalance < carPrince) && (userBalance < deposit) ) { return; }\n        //depositCarNumbers++;\n        //clientCar[depositCarNumbers] = ClientCar(_id, model, modelYear, canBeTested, _hasBeenVoted);\n        \n        //pay\n        send(owner, deposit);\n    }\n    \n    function buyCar(uint256 _id, uint256 _carCost) public{\n        uint256 userBalance = queryBalance(owner);\n        \n        uint256 carPrince = getCarPrice(_id);\n       if( (userBalance < carPrince)  ) { return; }\n        \n        send(owner, carPrince);\n    }\n\n    //add voting \n    function addVoting(uint256 _id, bool _voteCarService) returns (bool){\n        _voteCarService = cars[_id].voteCarService;\n        return _voteCarService;\n    }\n    \n    //can be canBeTested\n     function addTestOption(uint256 _id, bool _tesetService) returns (bool){\n        _tesetService = cars[_id].canBeTested;\n        return _tesetService;\n    }\n    \n    function getCarPrice(uint256 _id) returns(uint256){\n        return cars[_id].carCost;\n    }\n\n    //start vote contract\n   \n   \n    \n    function carPaintVote(uint256 _id, uint256 _carPaintVote) public{\n       \n       votecar[_id].id  = _id;\n        owner.call.value(1).gas(21000)();\n        votecar[_id].carPaint = _carPaintVote;\n        \n    }\n    \n    function carCoupeVote(uint256 _id, uint256 _carCoupeVote){\n        votecar[_id].id = _id;\n\n        owner.call.value(1).gas(21000)();\n        votecar[_id].carCoupe = _carCoupeVote;\n        \n    }\n    \n    function carEngineVote(uint256 _id, uint256 _carEngineVote){\n         votecar[_id].id = _id;\n         owner.call.value(1).gas(21000)();\n        votecar[_id].carEngine = _carEngineVote;\n    }\n    \n    //return car pint vote\n    function getCarPaintVote(uint256 _id)  public returns (uint256) {\n     return votecar[_id].carPaint;\n}\n    \n    //return car coupe vote\n    function getCarCoupeVote(uint256 _id)  public returns (uint256) {\n     return votecar[_id].carCoupe;\n    }\n    \n    //return car engive vote \n    function getCarEngineVote(uint256 _id) public returns (uint256) {\n     return votecar[_id].carEngine;\n}\n    //end vote contract\n}\n\ncontract Coin {\n    address minter;\n    mapping (address => uint) balances;\n    function Coin() {\n        minter = msg.sender;\n    }\n    function mint(address owner, uint amount) {\n        if (msg.sender != minter) return;\n        balances[owner] += amount;\n    }\n    function send(address receiver, uint amount) {\n        if (balances[msg.sender] < amount) return;\n        balances[msg.sender] -= amount;\n        balances[receiver] += amount;\n    }\n    function queryBalance(address addr) constant returns (uint balance) {\n        return balances[addr];\n    }\n}\n\n\ncontract ClientCarContract{\n    \n    struct ClientCar{\n        uint256 id;\n        string Model;\n        uint modelYear;\n        bool canBeTested ;\n        bool hasBeenVoted;\n    }\n    \n    //Read/write cars\n    mapping(uint256 => ClientCar) public clientCar;\n    \n    //owner balance\n    address owner = msg.sender;\n    mapping(address => uint) public balances;\n    \n   // Store client deposit Cars\n    uint256 public depositCarNumbers;\n    \n    //deposit car \n     //deposit car advert to be sure the Car add is not fake\n    function depositCarPrice(uint256 _carPrice)  private returns (uint256)  {\n        uint256 finalPrice = (_carPrice / 10);\n        return finalPrice;\n    }\n    \n    \n    //depositCar function\n    function depositCar(uint256 _id, string model, uint modelYear, bool canBeTested, bool _hasBeenVoted) public{\n        \n        Coin coinShop = new Coin();\n        uint256 userBalance = coinShop.queryBalance(owner);\n        \n        CarContract car = new CarContract();\n        uint256 carPrince = car.getCarPrice(_id);\n        uint256 deposit = depositCarPrice(carPrince);\n        \n        if( (userBalance < carPrince) && (userBalance < deposit) ) { return; }\n        depositCarNumbers++;\n        clientCar[depositCarNumbers] = ClientCar(_id, model, modelYear, canBeTested, _hasBeenVoted);\n        \n        //pay\n        coinShop.send(owner, deposit);\n        \n    }\n    \n    function buyCar(uint256 _id, uint256 _carCost) public{\n        Coin coinShop = new Coin();\n        uint256 userBalance = coinShop.queryBalance(owner);\n        \n        CarContract car = new CarContract();\n        uint256 carPrince = car.getCarPrice(_id);\n       if( (userBalance < carPrince)  ) { return; }\n        \n        coinShop.send(owner, carPrince);\n    }\n    \n}\n\ncontract VoteCar{\n    \n    struct CarInfo {\n        uint256 id;\n        string model;\n        uint modelYear;\n        bool canBeTested ;\n        bool hasBeenVoted;\n        uint carPaint;\n        uint carCoupe;\n        uint carEngine;\n    }\n    \n    //Read/write cars\n    mapping(uint256 => CarInfo) public votecar;\n    \n    \n    function carPaintVote(uint256 _id, uint256 _carPaintVote) public{\n       \n       votecar[_id].id  = _id;\n        //votecar.id = _id;\n        votecar[_id].carPaint = _carPaintVote;\n        \n    }\n    \n    function carCoupeVote(uint256 _id, uint256 _carCoupeVote){\n        votecar[_id].id = _id;\n        votecar[_id].carCoupe = _carCoupeVote;\n        \n    }\n    \n    function carEngineVote(uint256 _id, uint256 _carEngineVote){\n         votecar[_id].id = _id;\n        votecar[_id].carEngine = _carEngineVote;\n    }\n    \n    //return car pint vote\n    function getCarPaintVote(uint256 _id)  public returns (uint256) {\n     return votecar[_id].carPaint;\n}\n    \n    //return car coupe vote\n    function getCarCoupeVote(uint256 _id)  public returns (uint256) {\n     return votecar[_id].carCoupe;\n    }\n    \n    //return car engive vote \n    function getCarEngineVote(uint256 _id) public returns (uint256) {\n     return votecar[_id].carEngine;\n}\n\n}",
  "sourcePath": "/media/miroslav/My Data/Workspace/Dapp12/dapp/contracts/CarContract.sol",
  "compiler": {
    "name": "solc",
    "version": "0.4.24+commit.e67f0147.Emscripten.clang"
  },
  "schemaVersion": "2.0.1",
  "updatedAt": "2018-07-14T13:01:47.002Z"
}